:020000040800F2
:10000000500B00208901000853130008F31000086A
:100010004F13000861050008DB1D00080000000008
:10002000000000000000000000000000A71700080A
:100030004907000800000000C513000891180008D7
:10004000A3010008A3010008A3010008A301000800
:10005000A3010008A3010008A3010008A3010008F0
:10006000A3010008A3010008A3010008A3010008E0
:10007000A3010008A3010008A3010008A3010008D0
:10008000A3010008A3010008A3010008A3010008C0
:10009000A3010008A3010008A3010008A3010008B0
:1000A000A3010008A3010008A3010008A3010008A0
:1000B000A3010008F5180008A3010008A301000827
:1000C000A3010008A3010008A3010008A301000880
:1000D000A3010008391B0008A3010008A3010008C0
:1000E000A3010008A3010008A301000800F002F822
:1000F00000F03AF80AA090E8000C82448344AAF188
:100100000107DA4501D100F02FF8AFF2090EBAE885
:100110000F0013F0010F18BFFB1A43F0010318473B
:1001200094270000B4270000103A24BF78C878C193
:10013000FAD8520724BF30C830C144BF04680C60ED
:10014000704700000023002400250026103A28BF35
:1001500078C1FBD8520728BF30C148BF0B60704739
:100160001FB51FBD10B510BD00F08EF81146FFF78A
:10017000F7FF02F0C5F800F0ACF803B4FFF7F2FFA8
:1001800003BC01F02CFE00000948804709480047E5
:10019000FEE7FEE7FEE7FEE7FEE7FEE7FEE7FEE737
:1001A000FEE7FEE704480549054A064B7047000094
:1001B00095180008ED00000850050020500B0020A5
:1001C0005007002050070020704730B505460B4609
:1001D0002A4613F8014B12F8010B08B1A042F8D0DF
:1001E0001CB1002802D06D1CF1E7284630BD4FF04D
:1001F00000020429C0F0128010F0030C00F01F80F0
:10020000CCF1040CBCF1020F18BF00F8012BA8BF01
:1002100020F8022BA1EB0C0100F011B85FEAC17CC1
:1002200024BF00F8012B00F8012B48BF00F8012B78
:10023000704770477047704770474FF0000200B535
:10024000134694469646203922BFA0E80C50A0E8F9
:100250000C50B1F12001BFF4F7AF090728BFA0E8A7
:100260000C5048BF0CC05DF804EB890028BF40F873
:10027000042B08BF704748BF20F8022B11F0804FB5
:1002800018BF00F8012B7047754600F029F8AE46FC
:1002900005006946534620F00700854618B020B592
:1002A000FFF780FFBDE820404FF000064FF0000749
:1002B0004FF000084FF0000B21F00701AC46ACE80E
:1002C000C009ACE8C009ACE8C009ACE8C0098D467B
:1002D00070470446AFF300802046FFF74EFF000052
:1002E00000487047F004002021B1826842F001020A
:1002F000826003E0826822F00102826070470000A1
:1003000010B504461248844208D10121401501F07D
:1003100097F80021601501F093F817E00D4884422A
:1003200008D10121001501F08BF80021201501F002
:1003300087F80BE00848844208D10121C80301F086
:100340007FF800214FF4004001F07AF810BD000062
:100350000024014000280140003C014001460020EB
:100360008A6802F004020AB1012000E00020704710
:100370000146C86C80B270470246002013680B40EB
:100380000BB1012000E000207047014600208A6880
:1003900002F008020AB1012000E0002070470000CE
:1003A00030B502460020002350680F4C20400D79E4
:1003B0000C6844EA05242043506090680B4C2040B0
:1003C000D1E902542C434D7944EA4504204390601E
:1003D000D06A20F470000C7C641EE4B2234340EA2F
:1003E0000350D06230BD0000FFFEF0FFFDF7F1FFCB
:1003F000F0B504460D4600200021092D11DDE0680E
:10040000A5F10A0606EB4607072606FA07F1884318
:10041000A5F10A0606EB460603FA06F10843E0607A
:100420000CE0206905EB4507072606FA07F188432B
:1004300005EB450603FA06F108432061072A0FDAA7
:10044000606B561E06EB86071F2606FA07F18843E7
:10045000561E06EB860605FA06F10843606322E0A5
:100460000D2A0FDA206BD61F06EB86071F2606FA29
:1004700007F18843D61F06EB860605FA06F1084306
:10048000206310E0E06AA2F10D0606EB86071F2646
:1004900006FA07F18843A2F10D0606EB860605FA77
:1004A00006F10843E062F0BD816841F00801816017
:1004B000704721B1826842F4A002826003E0826842
:1004C00022F4A00282607047816841F004018160DB
:1004D0007047000000B587B001214FF4027000F0B2
:1004E0009FFF4FF4004000F06FFF0120ADF80400C3
:1004F00000208DF8070001A9174800F0E2FC17481A
:10050000FFF7FEFE002002908DF80C008DF80D0024
:100510004FF4602004900020059001208DF8180011
:1005200002A90E48FFF73CFF01210C48FFF7DCFE53
:100530000A48FFF7B9FF00BF0848FFF726FF002869
:10054000FAD10648FFF7C0FF00BF0448FFF706FFD7
:100550000028FAD107B000BD000C01400024014082
:1005600000BFFEE708B50121082000F059FF202058
:10057000ADF8000010208DF8030003208DF8020074
:100580006946044800F09DFC2021024800F07BFDF4
:1005900008BD0000000C014010B50024254800688B
:1005A00020F47000234908600846006840F44010B9
:1005B000086020211F4800F064FD40F2EE2001F0A9
:1005C00075FC20211B4800F05EFD0F2001F06EFC41
:1005D0001848006820F47000164908600846006852
:1005E00040F40000086002E0012001F05FFC2021DF
:1005F000104800F039FD20B12046611CCCB2C8285B
:10060000F2DBC82C01DB012010BD002402E0012038
:1006100001F04CFC2021074800F026FD20B92046BF
:10062000611CCCB2F028F2DBF02C01DB0120EBE7FF
:100630000020E9E7000C014070B50024002530E0FF
:1006400064101A48006820F47000184908600846D1
:10065000006840F4401008602021144800F011FDAB
:10066000022001F023FC2021104800F00CFD0F486F
:10067000006820F470000D4908600846006840F4E6
:10068000000008600C2001F011FC2021074800F058
:10069000EBFC08B144F080043C2001F007FC681C2E
:1006A000C5B2082DCCDB204670BD0000000C014017
:1006B00070B504461948006820F4700017490860B6
:1006C0000846006840F440100860012522E004F06C
:1006D0000106641076B12021104800F0D2FC0220FF
:1006E00001F0E4FB20210D4800F0CDFC3C2001F09E
:1006F000DDFB0DE02021094800F0C3FC3C2001F0A7
:10070000D5FB2021054800F0BEFC022001F0CEFB05
:10071000681CC5B2082DDADD70BD0000000C014078
:1007200010B502460021002000BF0AE042FA01F3A2
:1007300003F00103C1F10704A3400344D8B24B1CEA
:10074000D9B20829F2DB10BD7047000010B50A21AC
:10075000082000F0B7FCAE49088000F0EBFE04462C
:1007600002F042F800B2AB490880AB48007800289C
:100770007ED1AAA20021084600F0D0FDABA2002144
:100780000F2000F0CBFDA348B0F900000A2190FB38
:10079000F1F03030C4B2224600210D2000F048FDB7
:1007A0009C48B0F900000A2190FBF1F201FB120015
:1007B0003030C4B2224600210E2000F039FD9448AA
:1007C00000889B49098888420EDB9A4800780128F6
:1007D0000AD199A20121002000F0A0FD9AA20121D6
:1007E0000E2000F09BFD12E189480088904909889D
:1007F00088424CDB8F480078002848D18448008824
:100800004FF47A7190FBF1F03030C4B222460121EE
:10081000002000F00DFD7E480088642190FBF1F07F
:100820000A2190FBF1F201FB12003030C4B22246E3
:100830000121084600F0FCFC754800880A2190FB65
:10084000F1F090FBF1F201FB12003030C4B222460D
:100850000121022000F0ECFC6D4800880A2190FB89
:10086000F1F201FB12003030C4B22246012100E057
:1008700025E0032000F0DCFC74A20121042000F03C
:100880004DFD71A201210E2000F048FDBFE060483F
:100890000088674909888842A5DA01206E490870F6
:1008A0006E48007828B96EA20121002000F036FDC4
:1008B000ADE070A20121002000F030FDA7E0564815
:1008C000007801288FD155A20021084600F026FDAE
:1008D00056A200210F2000F021FD4E48B0F9000083
:1008E0000A2190FBF1F03030C4B2224600210D20E5
:1008F00000F09EFC4748B0F900000A2190FBF1F29D
:1009000001FB12003030C4B2224600210E2000F05C
:100910008FFC3F4800884649098888420EDB5A48C8
:10092000006801280AD144A20121002000F0F6FC51
:1009300056A201210E2000F0F1FC68E03448008846
:100940003B49098888424BDB4F480068F0BB304880
:1009500000884FF47A7190FBF1F03030C4B2224637
:100960000121002000F064FC29480088642190FBEC
:10097000F1F00A2190FBF1F201FB12003030C4B219
:1009800022460121084600F053FC214800880A2134
:1009900090FBF1F090FBF1F201FB12003030C4B299
:1009A00022460121022000F043FC194800880A2158
:1009B00090FBF1F201FB12003030C4B2224601215B
:1009C000032000F035FC21A2012100E008E0042012
:1009D00000F0A4FC2DA201210E2000F09FFC16E0E7
:1009E0000B48008812490988884210DA01201A4908
:1009F00008701A48007828B919A20121002000F0D7
:100A00008DFC04E01BA20121002000F087FC10BD3A
:100A1000160000201E0000201400002054656D7098
:100A2000657261747572653A200000004300000031
:100A300018000020260000202020204F70656E2026
:100A400020202020000000005A4400006D6C20206F
:100A5000202020202020000027000020200000204F
:100A600020576974686F757420576174657221200E
:100A700000000000202020202020202020202020F6
:100A80002020202000000000A081214253440000CB
:100A900010B5A6480078012842D1A5480078012861
:100AA00039D1A4A20021084600F038FCA6A20121F9
:100AB000002000F033FCA6480088642190FBF1F090
:100AC0003030C4B222460121052000F0B1FBA0481D
:100AD00000880A2190FBF1F090FBF1F201FB12007B
:100AE0003030C4B222460121062000F0A1FB984814
:100AF00000880A2190FBF1F201FB12003030C4B2F1
:100B000022460121072000F093FB92A20121082038
:100B100000F004FC04E08DA20121072000F0FEFBA0
:100B200082480078022851D181480078012848D1B4
:100B30008BA20021084600F0F1FB8EA201210020CB
:100B400000F0ECFB8DA20121062000F0E7FB8DA256
:100B500001210F2000F0E2FB8B4800780A2190FB76
:100B6000F1F03030C4B222460121042000F060FBD5
:100B7000854800780A2190FBF1F201FB1200303029
:100B8000C4B222460121052000F052FB7F480078C4
:100B90000A2190FBF1F03030C4B2224601210D2031
:100BA00000F046FB794800780A2190FBF1F201FB46
:100BB00012003030C4B2224601210E2000F038FB72
:100BC00004E062A20121052000F0A8FB574800784C
:100BD000032851D156480078012848D160A200214D
:100BE000084600F09BFB63A20121002000F096FB69
:100BF00062A20121062000F091FB62A201210F20D8
:100C000000F08CFB604800780A2190FBF1F0303056
:100C1000C4B222460121042000F00AFB5A480078A1
:100C20000A2190FBF1F201FB12003030C4B22246DF
:100C30000121052000F0FCFA544800780A2190FBBD
:100C4000F1F03030C4B2224601210D2000F0F0FA5C
:100C50004E4800780A2190FBF1F201FB120030307F
:100C6000C4B2224601210E2000F0E2FA04E037A2CD
:100C700001210E2000F052FB2C480078042854D1AA
:100C80002B48007801284BD141A20021084600F0F2
:100C900045FB2DA20121002000F040FB41480088C7
:100CA0004FF47A7190FBF1F03030C4B2224601214A
:100CB000052000F0BDFA3B480088642190FBF1F06C
:100CC0000A2190FBF1F201FB12003030C4B222463F
:100CD0000121062000F0ACFA324800880A2190FB7E
:100CE000F1F090FBF1F201FB12003030C4B2224669
:100CF0000121072000F09CFA2A4800880A2190FB75
:100D0000F1F201FB12003030C4B22246012108206A
:100D100000F08EFA24A20121092000F0FFFA04E07D
:100D20000AA20121082000F0F9FA10BD1C000020E1
:100D300029000020205365742054686520566F6C8C
:100D4000756D65200000000020202020200000009C
:100D5000240000206D6C20202020202000000000B6
:100D60002020536574205468652054656D702020E0
:100D700000000000542D4C3A000000004320205495
:100D80002D483A00430000001B0000201A000020FC
:100D90002053657420566F6C756D65204D696E200B
:100DA00000000000180000206D6C20202020200092
:100DB00030B5044604254FF4302000F06FF80546A6
:100DC000042D17D10C48006940F002000A4908615F
:100DD00008464461006940F0400008614FF430204B
:100DE00000F05CF805460448006941F6FD710840D2
:100DF00001490861284630BD0020024004200B490B
:100E0000C96801F0010109B101200EE00749C96874
:100E100001F0040109B1022007E00449C96801F0AA
:100E2000100109B1032000E00420704700200240B7
:100E30000348006940F080000149086170470000E4
:100E40000020024070B504460D460426F00200F072
:100E500025F80646042E11D10948006940F001002A
:100E6000074908612580F00200F018F8064604489A
:100E7000006941F6FE71084001490861304670BDC5
:100E80000020024002480349486003484860704718
:100E90002301674500200240AB89EFCD00B5024633
:100EA0000423FFF7ABFF034603E0FFF7A7FF03466A
:100EB000521E012B01D1002AF7D102B90523184691
:100EC00000BD2DE9F0410246002500260020002348
:100ED0000024002791F803C00CF00F0591F803C01F
:100EE0000CF0100CBCF1000F03D091F802C04CEADA
:100EF000050591F800C0BCF1000F31D01468002046
:100F00002BE04FF0010C0CFA00F3B1F800C00CEA32
:100F100003069E4220D183004FF00F0C0CFA03F71A
:100F2000BC4305FA03FC4CEA040491F803C0BCF18D
:100F3000280F06D14FF0010C0CFA00FCC2F814C0C7
:100F40000AE091F803C0BCF1480F05D14FF0010C45
:100F50000CFA00FCC2F810C0401C0828D1D3146061
:100F6000B1F800C0BCF1FF0F34DD546800202EE062
:100F700000F1080C4FF0010808FA0CF3B1F800C0BA
:100F80000CEA03069E4221D183004FF00F0C0CFAAD
:100F900003F7BC4305FA03FC4CEA040491F803C0D0
:100FA000BCF1280F05D100F1080C08FA0CF8C2F8C2
:100FB000148091F803C0BCF1480F07D100F1080C70
:100FC0004FF0010808FA0CF8C2F81080401C0828FD
:100FD000CED35460BDE8F081F0B50A46002300246A
:100FE0000021002500F00046B6F1004F02D11D4E51
:100FF000F16901E01B4E7168C0F3034583B200F450
:101000004016B6F5401F08D121F07061154E766884
:1010100026F07066134F7E6012E000F48016B6F57D
:10102000801F06D1032606FA05F4A14341F0706142
:1010300006E0460D360103FA06F6B14341F0706151
:1010400022B1460D360103FA06F6314300F00046A0
:10105000B6F1004F02D1034EF16101E0014E716023
:10106000F0BD0000000001400246002093680B40E4
:101070000BB1012000E0002070470146C86880B233
:1010800070474161704701617047C160704700005F
:1010900010B504460723012221460948FFF7A8F9A5
:1010A00001210748FFF705FA00BF02210448FFF7B6
:1010B00063F90028F9D00248FFF75AF910BD000083
:1010C000002401402DE9F04107460C46002500268A
:1010D00008E03846FFF7DCFF0544052000F09EFEDF
:1010E000701CC6B2A642F4DBB5FBF4F080B2BDE8DA
:1010F000F08100BFFEE7000008B501210D2000F0DF
:101100008FF901211F48FFF767FF4FF47040ADF8DA
:10111000000048208DF8030069461B48FFF7D1FE08
:101120004FF46070ADF8000010208DF8030003202C
:101130008DF8020069461448FFF7C3FE4FF4607152
:101140001148FFF79EFF4FF4C050ADF8000010208B
:101150008DF8030003208DF8020069460B48FFF765
:10116000B0FE4FF4C0510948FFF78BFF4FF4014028
:10117000ADF8000048208DF8030069460348FFF7EA
:10118000A0FE08BD00023000000C01400008014034
:1011900008B50121142000F043F9FF20ADF800004C
:1011A00010208DF8030003208DF8020069461E48C8
:1011B000FFF787FE4FF46040ADF8000010208DF877
:1011C000030003208DF8020069461848FFF779FEF6
:1011D000382000F041F8052000F020FE382000F013
:1011E0003BF8052000F01AFE382000F035F8052005
:1011F00000F014FE082000F02FF8052000F00EFE8D
:10120000012000F029F8052000F008FE062000F07B
:1012100023F8052000F002FE0C2000F01DF8052048
:1012200000F0FCFD08BD0000000801400010014076
:1012300070B504460D4616462DB904F18001C8B2BA
:1012400000F00AF804E004F1C001C8B200F004F8AC
:10125000304600F033F870BD70B5044600201449E4
:101260000860012000F022FE00201249C1F8B801F8
:10127000012000F01BFE01200D490831086000F03C
:1012800015FE0D48FFF7F9FE00F47F462046FFF7F4
:1012900047FA304485B229460748FFF7F6FE012099
:1012A00000F0BCFD00200349C1F8BC0170BD000086
:1012B000B4012242000022420008014070B50446F9
:1012C00001201349086000F0F1FD00201149C1F828
:1012D000B801012000F0EAFD01200D490831086045
:1012E00000F0E4FD0C48FFF7C8FE00F47F462046FE
:1012F000FFF716FA304485B229460748FFF7C5FEC6
:10130000012000F08BFD00200249C1F8BC0170BD36
:10131000B4012242000022420008014070B5054697
:101320000E4614462EB905F18001C8B2FFF794FFAE
:1013300004E005F1C001C8B2FFF78EFF03E020789A
:10134000FFF7BCFF641C20780028F8D170BD00BFF7
:10135000FEE7704770B5002100230F22C47804B364
:10136000154C246804F4E064C4F5E064210AC1F17A
:101370000403CA40447804FA03F1847814402143FA
:1013800009010E4C0678A155047804F01F050124CC
:10139000AC4005786D11AD0005F1E025C5F80041C0
:1013A00009E0047804F01F050124AC40044D0678E0
:1013B000761145F8264070BD0CED00E000E400E039
:1013C00080E100E07047000001460020034A5068B9
:1013D00020F4404008435060704700000010024075
:1013E00029B1064AD2690243044BDA6104E0034A98
:1013F000D2698243014BDA6170470000001002405D
:1014000029B1064A12690243044B1A6104E0034AF7
:1014100012698243014B1A617047000000100240BC
:1014200029B1064A92690243044B9A6104E0034AD7
:1014300092698243014B9A6170470000001002409C
:1014400029B1064AD2680243044BDA6004E0034A39
:10145000D2688243014BDA607047000000100240FE
:1014600030B500210022002400232D4D6D6805F0C9
:101470000C0121B1042905D0082923D105E0294D0B
:10148000056022E0274D05601FE0254D6D6805F4DD
:101490007012234D6D6805F48034022505EB9242ED
:1014A0001CB9214D554305600BE01D4D6D6805F4D9
:1014B00000351DB11C4D5543056002E0194D5543E3
:1014C000056002E0174D056000BF00BF144D6D6858
:1014D00005F0F0010909154D6B5C0568DD404560BC
:1014E0000F4D6D6805F4E061090A104D6B5C4568AD
:1014F000DD4085600A4D6D6805F46051C90A0B4DE9
:101500006B5C4568DD40C560054D6D6805F4404184
:10151000890B074D6B5CC568B5FBF3F5056130BD04
:101520000010024000127A0000093D000000002077
:10153000100000202DE9F05F4FF0000AD346FFF7BE
:101540002BF8CC20FFF7B4F84420FFF7B1F8FFF7F1
:1015500023F8CC20FFF7ACF8BE20FFF7A9F8FFF77F
:101560006BF88146FFF768F8044600BF49EA04209B
:101570000FFA80FA504601F022F807460022054B88
:1015800001F034F8054600F0E9FF83465846BDE80F
:10159000F09F00000000B03F30B503460C461546F2
:1015A000002207E0184600F075F824F812009B1C92
:1015B000501C82B2AA42F5DB30BD00001CB50522EA
:1015C00069460D48FFF7E8FF00208DF805000BA1E4
:1015D0006846FEF7FAFD48B9052208A1064800F062
:1015E0005DF8322000F01AFC00F030F800F00AF844
:1015F000642000F013FC1CBD10F000084644594460
:101600005A0000001CB5042269460B48FFF7C4FFCE
:10161000BDF8000009490870BDF8020008490870CB
:10162000BDF8040007490880BDF806000649088097
:10163000642000F0F3FB1CBD60F000081B000020DC
:101640001A00002024000020180000201CB50C48BF
:101650000078ADF800000B480078ADF802000A48A9
:101660000088ADF8040009480088ADF8060004229F
:101670006946074800F012F8642000F0CFFB1CBD5B
:101680001B0000201A000020240000201800002069
:1016900060F0000801460888704700002DE9F04F0F
:1016A00080468A461746B8F1006F02D3334880451A
:1016B00001D3BDE8F08FFFF7E5FBA8F1006B4FEA1F
:1016C0009B25CBF34809C9F50074A74200DC3C46D2
:1016D0004DE04FF0006101EB85208A142849FFF7A7
:1016E0005BFF00260BE009EB0600254931F81000EE
:1016F0004FF6FF71884200D003E0701C86B2A6420C
:10170000F1DB00BFA6421BDA4FF0006101EB852040
:10171000FFF74EFB002608E03AF8160006EB090139
:10172000174A22F81100701C86B2A642F4DB4FF073
:10173000006101EB85208A14114900F023F804E0D0
:1017400022465146404600F01DF8A74200D10FE066
:101750006D1C4FF000090AEB440AA044381B87B205
:10176000B7F5007F02DD4FF4007400E03C46B0E7BF
:1017700000BFFFF75DFB00BF9BE700000000010812
:101780005C000020F0B505460E461746002407E031
:1017900036F814102846FFF755FBAD1C601C84B2C8
:1017A000BC42F5DBF0BD704710B500F001F810BD8C
:1017B0000CB50020019000903348006840F4803060
:1017C0003149086000BF3048006800F400300090E4
:1017D0000198401C0190009818B90198B0F5A06FCD
:1017E000F1D12948006800F4003010B101200090C8
:1017F00001E0002000900098012843D123480068B0
:1018000040F01000214908600846006820F00300FD
:1018100008600846006840F0020008601A48406806
:10182000194948600846406848600846406840F4E6
:10183000806048600846406820F47C104860084694
:10184000406840F4E81048600846006840F0807046
:10185000086000BF0C48006800F000700028F9D054
:101860000948406820F0030007494860084640687E
:1018700040F00200486000BF0348406800F00C00E0
:101880000828F9D10CBD00000010024000200240E1
:101890007047000010B51348006840F0010011497E
:1018A000086008464068104908400E4948600846EC
:1018B00000680E4908400B4908600846006820F49B
:1018C000802008600846406820F4FE0048604FF41D
:1018D0001F008860FFF768FF4FF000600449086050
:1018E00010BD0000001002400000FFF8FFFFF6FEF0
:1018F00008ED00E010B501212F4800F0B0F80028F5
:1019000058D001212C4800F09BF82C480088401C3E
:101910002A490880084600880A280DDB0020088034
:101920002748007880F00100254908702548007894
:1019300080F001002349087023480078F0B923485B
:101940000078012808D122480068012804D100202D
:10195000204908801D4908701E480088002808DDBD
:101960001C480088401E1B49088001201A49086055
:1019700004E00020154908701749086017480078EE
:10198000012805D10A201649088000201349087053
:1019900013480088002809DD11480088401E1049BE
:1019A000088001200C49091D086003E000200A4955
:1019B000091D086010BD0000000400403000002038
:1019C0002000002029000020140000202600002014
:1019D0003C0121422A000020A08121422700002052
:1019E000320000207FB505460C4601210220FFF79A
:1019F000F7FCADF80850ADF804400020ADF80A003F
:101A0000ADF8060001A90D4800F044F80122114686
:101A10000A4800F035F81D208DF8000001208DF8EF
:101A200001008DF802008DF803006846FFF792FC74
:101A30000121024800F007F87FBD000000040040CB
:101A4000CA430282704721B1028842F0010202803B
:101A500004E002884FF6FE731A400280704730B5EA
:101A60000246002000230024158A05EA0103958917
:101A700005EA010413B10CB1012000E0002030BDE3
:101A80001AB183890B43838102E083898B4383816D
:101A900070470000002202881D4B98420ED01D4B5B
:101AA00098420BD0B0F1804F08D01B4B984205D024
:101AB0001A4B984202D01A4B984204D14FF68F73BA
:101AC0001A404B881A43174B984207D0164B98423E
:101AD00004D04FF6FF431A40CB881A4302808B880C
:101AE00083850B8803850A4B98420BD0094B98429B
:101AF00008D00E4B984205D00D4B984202D00D4BAA
:101B0000984201D10B7A038601238382704700003B
:101B1000002C014000340140000400400008004057
:101B2000000C004000100040001400400040014044
:101B3000004401400048014010B540F225510E48D4
:101B400000F08AF890B10D480068782802D3002090
:101B50000A490860084800F03BF9C1B2074802682A
:101B60000068401C054B18600548815440F225511F
:101B7000014800F007F810BD003801405400002073
:101B80007804002010B50022002340F66A14A14218
:101B900000D100BF0A1201249440A3B2DC430480A8
:101BA00010BD21B1828942F40052828104E0828911
:101BB0004DF6FF731A4082817047000010B504464D
:101BC0002048844209D101218803FFF739FC002114
:101BD0004FF48040FFF734FC32E01B48844209D1C7
:101BE00001214804FFF70CFC00214FF40030FFF7FF
:101BF00007FC25E01548844209D101218804FFF73C
:101C0000FFFB00214FF48020FFF7FAFB18E010489B
:101C1000844209D10121C804FFF7F2FB00214FF4EF
:101C20000020FFF7EDFB0BE00A48844208D10121B8
:101C30000805FFF7E5FB00214FF48010FFF7E0FBFC
:101C400010BD000000380140004400400048004042
:101C5000004C00400050004070B5024600240023B4
:101C60000025002040F66A16B14200D100BFC1F342
:101C7000421501F01F03012606FA03F3012D02D1DC
:101C80009689334006E0022D02D1168A334001E0E6
:101C9000968A33400C12012606FA04F41688344062
:101CA00013B10CB1012000E0002070BDF0B5034677
:101CB000002400260025002040F66A17B94200D112
:101CC00000BF1846C1F3421401F01F06012707FAAE
:101CD00006F5012C01D10C3004E0022C01D11030AA
:101CE00000E014301AB107682F43076002E007686C
:101CF000AF430760F0BD00002DE9F04786B0054610
:101D00000E460024A24600BFA1460027B08900B1BC
:101D100000BF2F462C8A4CF6FF700440F088044325
:101D20002C82AC894EF6F3100440B0883189084308
:101D3000718908430443AC81AC8A4FF6FF400440EC
:101D4000B0890443AC8201A8FFF78AFB1F48874291
:101D500002D1DDF810A001E0DDF80CA0A88900F4A4
:101D6000004040B10AEBCA0000EB0A10316849009C
:101D7000B0FBF1F807E00AEBCA0000EB0A1031688B
:101D80008900B0FBF1F86420B8FBF0F004012009F1
:101D9000642101FB1089A88900F4004040B1322081
:101DA00000EBC900B0FBF1F000F00700044308E0CD
:101DB000322000EB09106421B0FBF1F000F00F00BD
:101DC00004432C8106B0BDE8F087000000380140D4
:101DD00001468888C0F30800704700BFFEE700BFD7
:101DE00070470000094800680949B0FBF1F0094953
:101DF00008700846007800EB4001C1EBC0104FF6B8
:101E0000FF7101EAC00004490880704734000020D7
:101E100000127A00480000204A00002001461F4AB4
:101E200012884A434FF0E0235A6100229A611A4611
:101E3000126942F001021A6100BF4FF0E0221069FE
:101E4000174A128B92B1174A1268521C154B1A602E
:101E50001A4612684AF6C8739A4207D90022114BF3
:101E60001A60114A1268521C0F4B1A6000F00102EE
:101E70001AB100F48032002ADFD00B4A1268B2F5A2
:101E8000966FDAD84FF0E022126922F001024FF08B
:101E9000E0231A6100229A61704700004A00002086
:101EA0005C0400204C000020500000200146114A34
:101EB00012784A434FF0E0235A6100229A611A4691
:101EC000126942F001021A6100BF4FF0E02210696E
:101ED00000F001021AB100F48032002AF5D04FF070
:101EE000E022126922F001024FF0E0231A61002281
:101EF0009A6170474800002010B5F2480068002839
:101F000036D1F1480078002832D11420FFF786FF3F
:101F1000EC48006860BBEC48007848BB00BFE9486B
:101F2000006818B9E84800780028F8D0E748007839
:101F300080F00100E549087008460078C0B1E1482A
:101F400060300068012804D0DE4864300068012851
:101F50000ED1DD48007858B90120DD490870002015
:101F6000D84960310860DB49C1F8A001DA4908703E
:101F7000D448001F0068A8BB1420FFF74FFFD148CA
:101F8000001F006870BB00BFCE48001F006800281B
:101F9000FAD0CE48007828BBCA48603000680128D3
:101FA00004D0C8486430006801280ED1C6480078C3
:101FB00058B90120C64908700020C2496031086044
:101FC000C449C1F8A001C4490870BF480078401C4A
:101FD000BD49087008460078042803DD0020087019
:101FE000FFF734FBB7480838006800287ED114207A
:101FF000FFF714FFB34808380068002865D1B748D8
:102000000088401CB54908800846008801285DD139
:10201000AD480078F8B9AD48007801281BD1B04828
:10202000B0F90000AF490978884214DAA548603059
:102030000068C043A749C1F89C01A248603000680D
:10204000012802D1A449087002E00020A2490870CA
:1020500001209F4908709C48007801280AD1A248B5
:10206000008840F2E731884204DA9F480088401C2B
:102070009D4908809448007802280BD1994800783F
:102080009A490978401A012804DD98480078401CD4
:10209000964908708C480078032808D19148007848
:1020A000632804DA8F480078401C8E4908708648FF
:1020B0000078042856D18E480088B0F5FA6F51DABE
:1020C0008B480088401C8A4908804BE08348008880
:1020D000142847DD8149088800EBD0714910A0EB36
:1020E0004101D9BB78480078012800E037E00AD1E7
:1020F0007D48008840F2E731884204DA7A48008857
:10210000401C794908807048007802280BD1754836
:10211000007876490978401A012804DD7348007870
:10212000401C7249087068480078032808D16D483F
:102130000078632804DA6B480078401C694908700D
:102140006148007804280DD169480088B0F5FA6F1D
:1021500008DA67480088401C6549088002E00020D2
:102160005E49088057480C38006800287ED114204A
:10217000FFF754FE53480C380068002857D15D48DB
:102180000088401C5B4908804F48007880B95A4855
:1021900000885749098888420ADB5848006838B9DE
:1021A000484864300068C0434A49C1F8A00103E0D0
:1021B00000204449643108604E480088012837D126
:1021C00041480078012808D147480088002804DDEC
:1021D00045480088401E444908803B480078022852
:1021E00008D142480078002804DD40480078401EAD
:1021F0003E4908703448007803280BD139480078EC
:102200003A490978401A012804DD36480078401E12
:10221000344908702C480078042852D1344800888A
:1022200000284EDD32480088401E3149088048E0D1
:1022300030480088142844DD2E49088800EBD0710E
:102240004910A0EB4101C1BB1F480078012808D10B
:1022500025480088002804DD23480088401E2249C4
:1022600008801948007802280AD100E026E01F48BB
:102270000078002804DD1D480078401E1B490870C6
:102280001148007803280BD11648007817490978BF
:10229000401A012804DD13480078401E11490870D7
:1022A0000948007804280CD111480088002808DD6E
:1022B0000F480088401E0E49088002E000200D49AA
:1022C000088010BD3C8121421C0000201400002029
:1022D0002700002000802142280000202E0000203E
:1022E0001E0000201A000020240000201B000020F7
:1022F000180000202C000020160000203C01214284
:10230000FFF770FD4FF4FA70FFF788FDFFF756F9FD
:10231000FEF728F9FEF740F9FFF70CF9FEF7DAF8B7
:102320004FF4165000F0BCF8FEF7E6FEFEF730FF63
:1023300078214B48FDF75BFF00204A4908604FF4C5
:10234000FA70FFF76BFD41F61F4140F2F310FFF703
:1023500049FB84E0FFF7D0FD43480078002879D19D
:10236000FEF7F4F94148007800285DD14048006844
:1023700030BB4048006818BB3F4800883F49098887
:1023800088421DDB0A20FFF749FD39480068B8B9CB
:1023900038480068A0B900BF354800680028FBD065
:1023A0003548008835490988884209DB01203449CD
:1023B000087034480088052190FBF1F0324908800C
:1023C0002D4800882D490988884228DB2F48B0F91C
:1023D00000002F49097888420CDC012024496C3127
:1023E00008602C48007810B901202B4908700120A2
:1023F000284908702548B0F9000028490978884222
:102400002ADB00201A496C31086022480078012834
:1024100001D12149087000201E4908701CE00020ED
:1024200013496C31086017E01848B0F900001B49E7
:102430000978884210DB00200D496C31086015488E
:102440000078012801D11449087000201149087052
:1024500002E0FFE7FEF71CFB0A20FFF7DFFC79E74D
:1024600078040020540000201C00002014000020EC
:10247000308121423C01214216000020180000203A
:1024800026000020240000202A0000201E0000203A
:102490001B00002028000020270000201A00002038
:1024A00010B586B00446012144F20500FEF7B8FFDE
:1024B0002848FFF783FB4FF40070ADF814000320A9
:1024C0008DF8160018208DF8170005A92248FEF790
:1024D000F8FC4FF48060ADF8140004208DF817006C
:1024E00005A91D48FEF7EDFC25208DF8000003200E
:1024F0008DF8010002208DF8020001208DF8030004
:102500006846FEF727FF01940020ADF80800ADF8FB
:102510000A00ADF80C00ADF810000C20ADF80E006C
:1025200001A90C48FFF7E8FB01A90A48FFF7E4FB03
:10253000012240F225510748FFF7B8FB002240F284
:1025400024410448FFF7B2FB01210248FFF729FBB1
:1025500006B010BD003801400008014021F00042E3
:10256000A2F16052B2F5801F01F0004328BFD2F102
:102570007F6C0BD95FEA001C43EAC20242EB507049
:1025800018BF704728BF20F001007047B2F5801FC8
:10259000BCBF184670474FEA410C1CF5001F02D221
:1025A000084600F082B970B500F0CAF80000008952
:1025B000FFF7F6BF4FF00040A0F58000704710F025
:1025C000004248BF4042B0FA80F310FA03F10AD04B
:1025D000C3F11D0303F580634FEA415002EB035240
:1025E00002EBD12170474FF000007047DFF848C17F
:1025F00070B51CEA111E1EBF1CEA13159EEA0C0FD3
:1026000095EA0C0F00F06F8081EA030423EA4C1373
:102610004EEAD47E21EA4C1141F4801143F4801338
:10262000AE44A1FB024CA0FB0365AEF17F7E3619E0
:1026300055EB0C05A1FB034C4CF10003A0FB021C65
:1026400016EB0C06654153F10003094218BF46F032
:10265000010613F4007F0BD14FEA03314FEA053036
:10266000340341EA155140EA16506FF003020AE0C4
:102670004FEAC3214FEAC520F40241EA555140EA2E
:1026800056506FF0020202EB2E4201EB025585EA32
:10269000CE710AD05FEA440C18BF24F0004450F118
:1026A000000041F1000120EAD47040F2FE7C624556
:1026B00000D270BDA84214BF4FF080444FF0404498
:1026C000002E08BF0024BEF1806FA8BFA1F1C04159
:1026D000BDE8704080F282804FF0000001F1C041FF
:1026E00001F0004170479EEA0C0F0CEA131518BF69
:1026F00095EA0C0F06D04FF0000081EA030E0EF0B1
:10270000004170BD00F01CF88900013E00F007B8E0
:1027100000F009B84FEA430C5FEA5C5C08D081EA3C
:10272000030100F05BB84FEA410C5FEA5C5CF6D154
:102730004FF00000014970470000FF070000F87FDC
:102740000EF1020E2EF0030E5EF8046B364205D435
:10275000012A43EB030515F5001F12D8012841EBB0
:10276000010C1CF5001F0CD80ED14FEAD17C15F5D9
:10277000001F0CEB4C0C0CF1020C08BF4CEBD37C93
:1027800004E04FF0080C01E04FEAD37C0CEB4C0561
:1027900026FA05F606F00706B6F1040C06D20EEB93
:1027A000860CBDE870404CF0010C6047DFE80CF08F
:1027B000090B02024FF000414FF00000A1F500218B
:1027C00070BD19461046012851EB010418BFD4F51D
:1027D000001484BF002001F0004170BD0808A0F57E
:1027E00000114FEA3101704741000B0ED3F19E02F8
:1027F00008D950F400034FEA032323FA02F048BF3C
:102800004042704710B500F00AF800BF499224809A
:10281000002070476FF0004282EA200070470EF1FE
:10282000020E2EF0030E5EF8044B244204D44FEA4D
:102830004102B2F17F4F11D84FEA4003B3F17F4F0D
:102840000CD80ED14FEAD07CB2F17F4F0CEB4C0C80
:102850000CF1020C08BF4CEBD17C04E04FF0080CEB
:1028600001E04FEAD17C0CEB4C0324FA03F404F0B2
:102870000704B4F1040C06D20EEB840CBDE8104042
:102880004CF0010C6047DFE80CF0070802024FF043
:102890000040A0F5800010BD0846420018BFD2F1EC
:1028A000807288BF00F0004010BDFF2141EAD05087
:1028B000C0057047D4280008000000205C0000001C
:1028C00028010008302900085C000020F40A0000FC
:1028D0004401000800000000010203040102030497
:1028E000060708090204060800000000C800230AC1
:1028F0000000000000000000C80000000000000010
:10290000000000000000000000A24A0400000000D7
:10291000000000000102030406070809000000008F
:1029200000000000000000000000000000000000A7
:04000005080000ED02
:00000001FF
